:1000000030C04AC049C048C0C6C046C045C044C050
:1000100043C042C041C040C03FC03EC03DC03CC0E4
:100020003BC03AC039C07E818181817E008482FFDD
:10003000808082C1A19189864281898989763F2009
:1000400020FC20204F89898989717E89898989725C
:100050000301C1310D0376898989897646898989A9
:10006000897E11241FBECFE5D4E0DEBFCDBF10E0F6
:10007000A0E6B0E0E8EAF4E002C005900D92A836F0
:10008000B107D9F710E0A8E6B0E001C01D92AF3883
:10009000B107E1F78FD106C2B3CF70E06150704075
:1000A00021E030E002C0220F331F6A95E2F70DC055
:1000B000C498A901482359234115510511F0C59A47
:1000C00001C0C598C49A369527952115310581F749
:1000D0000895C3986CE0E1DFC39A0895EF92FF9210
:1000E0000F931F93CF93DF93C39880E892E06AE069
:1000F000D4DFC0E0D0E01EC02191880F30E0002E98
:1001000002C0359527950A94E2F72170822B9F5FF4
:10011000983091F790E068E0C0DF0F5F1F4F083024
:10012000110521F0F70190E080E0E6CF2196C43080
:10013000D10569F07E0153E0EE0CFF1C5A95E1F702
:1001400000E010E08AE690E0E80EF91EEBCFC39ADB
:10015000DF91CF911F910F91FF90EF90089582E072
:1001600098E0B7DF86E098E0B4DF80E398E0B1DFA5
:1001700080E498E0AEDF80E599E0ABDF80E198E0D5
:10018000A8DF089590E08F709070880F991F805CB1
:10019000964F9FDF08951F920F920FB60F92112472
:1001A0008F93809160008F5F809360008F910F909C
:1001B0000FBE0F901F90189590916000980F90932C
:1001C00060009091690080918A0020918D0012C09A
:1001D000309160003C53309360009F5F09C09C5396
:1001E0008F5F02C08851232F322F3F5F8831D0F7B5
:1001F0009C33A8F7309160003C3350F7909369002E
:1002000080938A0020938D00089590916900209139
:100210008A0030918D005BE318C040916000442358
:1002200031F0409160004150409360000DC0509308
:100230006000992311F0915007C0222311F0215042
:1002400002C0315027E19BE38150882331F790931E
:10025000690020938A0030938D000895909160008A
:1002600080916100981741F0809160008093610057
:1002700080E0A2DF81E0089580E00895CF93DF93CE
:1002800020918A002D3010F02C5002C0222319F04A
:100290002A3070F001C02CE0822F6AE0F7D0E6E04F
:1002A0008E9FF0011124EA5DFF4FAAE6B0E00DC079
:1002B00010926A0010926B0010926C0010926D0008
:1002C00010926E0010926F0007C084918D9331964A
:1002D00080E0A037B807C9F710927000822F6AE05B
:1002E000D5D086E0989FF0011124EA5DFF4F87E0AA
:1002F0009491C82FD0E0AAE6B0E0CA0FDB1F988324
:100300008F5F31968D30A1F71D961C921D978091BD
:10031000600080FF08C01E961C921E9784E21F9604
:100320008C931F9705C01E961C921E971F961C92B9
:1003300010927A0020916900822F6AE0A7D0E6E04F
:100340008E9FF0011124EA5DFF4F81E19491A82F67
:10035000B0E0A659BF4F9C938F5F31968731B1F7BC
:10036000EAE6F0E0178A822F6AE090D086E0989F54
:10037000F0011124EA5DFF4F88E19491A82FB0E0CD
:10038000CAE6D0E0AC0FBD1F9C938F5F31968E31D3
:10039000A1F71E8E2091600026952695269581E076
:1003A00090E002C0880F991F2A95E2F78F8FDF91A6
:1003B000CF91089587B3886387BB88B3886388BB70
:1003C000CEDE81B38F7181BB82B3806E82BB82B57A
:1003D000886082BD85E085BD89B7806489BF7894D7
:1003E000EAE6F0E080E090E025E530E0AC01417025
:1003F0005070B90102C0660F771F4A95E2F761930A
:1004000001968032910591F769DE87E080938A003A
:1004100088E28093690086990CC080918E008B3FA2
:1004200010F084E104C08F5F80938E0081E0C4DE11
:1004300027C085990CC080918E008B3F10F084E11D
:1004400004C08F5F80938E0081E0DFDE19C0879942
:1004500015C080918E00882399F481E080938E00EE
:100460008091620090E001968370907080936200AA
:100470008D599F4FFC01808185DE02C010928E0055
:10048000EDDE882341F2FADE29DEC5CF991B79E043
:1004900004C0991F961708F0961B881F7A95C9F714
:0804A00080950895F894FFCF48
:0804A80005C8030002060F0065
:00000001FF
