:2000000012C02BC02AC029C0D7C127C026C025C024C023C022C021C020C01FC01EC01DC002
:200020001CC01BC01AC011241FBECFE5D4E0DEBFCDBF11E0A0E6B0E0E8E8FCE002C0059082
:200040000D92AC31B107D9F711E0ACE1B1E001C01D92A43AB107E1F7C1C5D2CF982F413050
:2000600079F480E08617C8F4C49897FF02C0C59A01C0C598990FC49A8F5F8617A8F3089560
:2000800080E0861750F4C49890FF02C0C59A01C0C5989695C49A8F5FF4CF08951F93182F25
:2000A000C39841E063E080E8D9DF41E069E0812FD5DFC39A1F9108950F931F93182F062F19
:2000C000C39841E063E080EAC9DF41E067E0812F042E01C0880F0A94EAF7C0DF40E068E027
:2000E000802FBCDFC39A1F910F9108950F931F93CF93DF93182FEB01042FC39841E063E01F
:2001000080EAACDF41E067E0812F042E01C0880F0A94EAF7A3DF10E0101730F440E068E0A4
:2001200089919CDF1F5FF8CFC39ADF91CF911F910F910895CF93C39841E063E080EA8EDFD3
:2001400041E067E080E08ADFCFE140E068E0842F85DFC150C7FFF9CFC39ACF910895C39AE9
:20016000C49AC59A80E09ADF80E298DF88E196DF81E094DF80EA92DF88E090DF83E08EDFDC
:20018000D9DF0895A29AAA9887EB8A95F1F7A298AA9A84E18A95F1F793B3947080E58A955B
:2001A000F1F7892F99270895982F24E130E040E050E067E0A29AAA9890FDAA9A822F8A95B0
:2001C000F1F7AA9A9695615067FFF4CF089590E024E130E040E050E067E09695A29AAA988C
:2001E000A298AA9A9A999068822F8A95F1F7615067FFF3CF892F992708951F93182FC2DF16
:200200008CECD2DF8EE4D0DF82E0CEDF81E0CCDF812FCADFB7DF8CECC7DF88E4C5DF1F91AC
:20022000089587B3886387BB88B3886388BB81B38F7181BB82B3806E82BB089580919B0137
:20024000823041F48091A201837011F48DE10AC08CE108C088300CF0875080FF02C08FE162
:2002600001C08EE1992708950F931F93CF93DF9350916000AFE1B1E020E030E047E0852F7C
:200280006AE0E9D4E82FFF27E7FDF09563E0EE0FFF1F6A95E1F7E20FF31FE458FF4F8081EE
:2002A0008D9341502F5F3F4F47FFE9CF40E006E610E0C7E2D1E0A0E0B0E0852F6AE0CBD470
:2002C000E92FFF27E7FDF09533E0EE0FFF1F3A95E1F7EA0FFB1FE458FF4F20812695842FF6
:2002E0008770B80102C0660F771F8A95E2F7CB018078282B29934F5F11964830F0F240E0E7
:2003000050919D0106E610E0CFE2D1E0A0E0B0E0852F6AE0A0D4E82FFF27E7FDF09523E0F5
:20032000EE0FFF1F2A95E1F7EA0FFB1FE458FF4F8081282F3327220F331F842F8770B801D6
:2003400002C0759567958A95E2F7CB018170822B89934F5F11964830D8F2A7E3B1E020E0A5
:2003600030E047E0852F6AE076D4E92FFF27E7FDF09583E0EE0FFF1F8A95E1F7E20FF31FDF
:20038000E458FF4F80818D9341502F5F3F4F47FFE9CFDF91CF911F910F91089515BC88E011
:2003A00082BD88EF84BD87E085BD8FB780688FBF89B7806489BF08951F920F920FB60F9260
:2003C00011241F932F933F934F935F936F937F938F939F93AF93BF93EF93FF9388EF84BD06
:2003E00080919A018F5F80939A01893220F010929A011092980180911E018F5F80931E0122
:20040000823038F080911D018F5F80931D0110921E0180911D01823008F47EC010921D0118
:2004200020919C012F5F20939C0130919D01832F65E011D4992379F42A3069F480919801CB
:20044000882349F490919901992329F481E0809399019093970180919C018C330CF45CC0CE
:20046000832F8F5F80939D0110929C018C330CF453C0809160008F5F8093600010929D0108
:2004800088310CF449C01091A3011F5F1093A30110926000D3DE212F332727FD309599278A
:2004A00082179307ACF480919B018F5F80939B0191E09093A3018D305CF08091A201890F92
:2004C0008093A20190939B01843614F01092A2012091A301822F6AE0BED380936900822F96
:2004E0006AE0B9D390936A0020919B01822F6AE0B2D380936600822F6AE0ADD3909367004E
:200500002091A201822F6AE0A6D380936300822F6AE0A1D390936400FF91EF91BF91AF9107
:200520009F918F917F916F915F914F913F912F911F910F900FBE0F901F90189595DE809160
:200540009801813069F580919F01882359F010929F01809160008F5F80936000883114F07D
:20056000109260008091A001882361F01092A0018091600081508093600087FF03C087E122
:200580008093600080911D018823E9F1EFE1F1E09FE0808180788193915097FFFACF33C0D4
:2005A000823089F580919F01882369F010929F0110929C0180919D018F5F80939D018C33C8
:2005C00014F010929D018091A001882371F01092A00110929C0180919D01815080939D0166
:2005E00087FF03C08BE380939D0180911D01882351F0EFE1F1E09FE080898170808B915072
:20060000319697FFF9CF80911C0190911D01891739F090931C0140E26FE171E080E066DDD9
:2006200008950CDE482F8091A301992787FD9095242F33272817390714F44093A3018091E2
:200640009F01882381F010929F018091A3018F5F8093A301992787FD9095281739071CF44A
:2006600081E08093A3018091A001882359F01092A0018091A30181508093A301181614F00A
:200680004093A3012091A301822F6AE0E4D280936900822F6AE0DFD290936A00EFE1F1E087
:2006A00097E01192915097FFFCCF31E0832F9927FC01EF59FF4F2781E22FFF27DC0183E0A9
:2006C000AA0FBB1F8A95E1F7A15EBE4F73E0EE0FFF1F7A95E1F7E458FF4F97E081918D93FC
:2006E000915097FFFBCF3F5F343000F320911D01222339F0E7E2F1E09FE01192915097FF54
:20070000FCCF80911C01821739F020931C0140E26FE171E080E0EADC089580919F0188236C
:2007200061F010929F0180919B018F5F80939B018D301CF081E080939B018091A0018823A6
:2007400061F01092A00180919B01815080939B0118161CF08CE080939B0120919B01822F85
:200760006AE079D280936600822F6AE074D290936700EFE1F1E097E01192915097FFFCCFA3
:2007800031E0832F9927FC01EF59FF4F2481E22FFF27DC0123E0AA0FBB1F2A95E1F7A15E5E
:2007A000BE4F93E0EE0FFF1F9A95E1F7E458FF4F97E081918D93915097FFFBCF3F5F343021
:2007C00000F320911D01222339F0E7E2F1E09FE01192915097FFFCCF80911C01821739F0FB
:2007E00020931C0140E26FE171E080E07FDC089580919F01882359F010929F018091A20173
:200800008F5F8093A201843614F01092A2018091A001882361F01092A0018091A2018150BB
:200820008093A20187FF03C083E68093A2012091A201822F6AE00FD280936300822F6AE0F9
:200840000AD29093640030E0832F9927FC01EF59FF4F2081E22FFF27DC0153E0AA0FBB1FA5
:200860005A95E1F7A15EBE4F43E0EE0FFF1F4A95E1F7E458FF4F97E081918D93915097FF06
:20088000FBCF3F5F343000F320911D01222339F0EFE2F1E09FE01192915097FFFCCF809145
:2008A0001C01821739F020931C0140E26FE171E080E01CDC0895CF92DF92FF920F931F931A
:2008C000CF93DF93C0919801CC2309F0FBC080919901882309F49DC080919701882341F47E
:2008E000EFE1F1E047E71192415047FFFCCFBCDC50919701563009F057C040E037E0C32E15
:20090000D12C842F9927242F269526952695EC01C21BD109FC01EF59FF4F8081A82FBB27F2
:20092000842F8770682F77278181E82FFF278601061B170B23E0CC0FDD1F2A95E1F7C15C41
:20094000DE4F93E0EE0FFF1F9A95E1F7E458FF4F83E0AA0FBB1F8A95E1F7A458BF4F17E05D
:20096000F12E8D91282F3327062E02C0359527950A94E2F781919927002E02C0880F991F85
:200980000A94E2F7822B8993FA94F7FEEACF4F5F4B3008F4B6CFE7E8F1E047E080818F7169
:2009A0008193415047FFFACF80911C0190911E01891709F4A2C090931C01852F8F5F809321
:2009C0009701843738F0109297011092990181E08093A10140E0E42FFF27B3E0EE0FFF1F09
:2009E000BA95E1F7E15EFE4FA7E0FA2E808186959085292F33273695322F222737952795B5
:200A0000822B8193FA94F7FEF1CF4F5F4E3018F353C08091A101882381F180919701882364
:200A200009F422DC80911C0190911E01891709F464C090931C01809197018F5F809397010A
:200A4000893020F0C0939701C093A101C0E0D0E08E0163E0F62E20919701C801821B91095E
:200A6000895D9E4F422FBC018C2F40DBFA94085F1F4F6096F7FEEFCF40C080911C01909144
:200A80001D018917D1F190931C01EEDB80911D01882391F0E7E2F1E047E080818F77819396
:200AA000415047FFFACFEFE2F1E047E080818E7F8193415047FFFACF40E26FE171E080E0E8
:200AC00015DB1BC08C2F99278330910589F08430910534F48130910549F0029739F00DC08D
:200AE0008430910539F0059739F007C027DD05C07FDE03C012DE01C094DDDF91CF911F916C
:200B00000F91FF90DF90CF900895D5DE87991CC084EC99E00197F1F7879916C0879903C04A
:200B2000CADE879BFDCF10929901109297011092A10110929A01809198018F5F80939801E4
:200B4000863010F010929801869922C084EC99E00197F1F786991CC0869903C0ACDE869BB2
:200B6000FDCF90919801992331F010929A0181E080939F010DC080919E018F5F80939E01A4
:200B8000803114F090939E0180919E01806A86DA859923C084EC99E00197F1F785991DC07F
:200BA000859903C088DE859BFDCF80919801882331F010929A0181E08093A001089580918C
:200BC0009E01815080939E0187FF03C08FE080939E0180919E01806A61DA0895CFE5D4E0AF
:200BE000DEBFCDBF28E833E189E190E00197F1F721503040C9F715DBD1DBB1DA809169000C
:200C00009AE0899F9001112480916A00820F8093A30180916600899F9001112480916700CC
:200C2000820F80939B0180916300899F9001112480916400820F8093A2018FE7DEDA88E8B8
:200C400093E10197F1F710DB40E26FE171E080E04DDA5BDFFECF87FB082E062687FD8195E6
:200C600067FD619505D00EF4919507FC81950895991B79E004C0991F961708F0961B881FE1
:200C80007A95C9F7809508950C020001001000041101011200000101020303040505060667
:200CA000070808093C42464A5262423C101814101010107E3C4240201008047E3C42403C68
:200CC0004040423C20302824227E20207E02023E4040423C3C02023E4242423C7E4020106E
:200CE000080404043C42423C4242423C3C4242427C40423C3C4242427E4242423E42423E60
:200D00004242423E3C4202020202423C1E2242424242221E7E02027E0202027E7E02023EFF
:200D200002020202047C123C147E10107C447C447C4464427E42427E42427E423A440404FB
:040D4000040444382B
:00000001FF
